:060000000A128A110C280F
:10000800FE00030EF2000A08F3000A128A114128C2
:100018000A128A110F280A128A119D200A128A11BF
:10002800F800F70183010A128A111A2883160313AC
:100038000F108F150A128A118F200A128A110A12BC
:100048008A1196200A128A110A128A1168200A1245
:100058008A111A30F6005E30F5006E30F400F40BA9
:100068003328F50B3328F60B3328000083120313CB
:1000780088153D280A128A110C28003083120313B0
:1000880018190130F700981C4A284B284D281812D7
:1000980018161A08F1007108F80078080A128A116F
:1000A80083200A128A1141307806031D5C285D28D6
:1000B8006128013083120313880673088A00720EC0
:1000C8008300FE0E7E0E0900831603131812831296
:1000D800031398178316031398168312031318161D
:1000E8008316031318158316031787118316031332
:1000F8009A01813099008C160B178B170800F000B5
:10010800700883120313990083160313981C8D2813
:100118008E28882808008316031388110811881070
:10012800081008008312031308108810081188119A
:040138000800543433
:04400E00F22CFF3F52
:00000001FF
