:060000000A128A110E280D
:10000800FE00030EF2000408F3000A08F4000A12C6
:100018008A111E280A128A1111280A128A11E3204D
:100028000A128A11FB00F801F901FA0183010A1288
:100038008A116D28831203138C1E232824283A283A
:10004800003018190130FA00981C2B282C282E286B
:10005800181218167B300A128A11CB200A128A113C
:100068007B300A128A11BD200A128A1141307B06A0
:10007800031D3F28402844280130831203138806B3
:100088000B1D472848286428E830780603300319F0
:100098007906031D5028512857280430831203136A
:1000A8008806F801F90102308312031388066430C8
:1000B80081000B110130F8070318F90A0030F9071D
:1000C80074088A0073088400720E8300FE0E7E0E88
:1000D8000900831603130F108F150A128A11D520F1
:1000E8000A128A110A128A11DC200A128A110A12CB
:1000F8008A11A2200A128A113330F700BB30F600A9
:10010800DF30F500F50B8628F60B8628F70B8628D6
:100118008D28643083120313810083160313811220
:1001280081110108F839043881008B160B118312EC
:10013800031388159E280A128A110E2883160313A2
:100148001812831203139817831603139816831231
:10015800031318168316031318158316031787112C
:10016800831603139A01813099008C160B178B178D
:100178000800F00070088400000883120313990037
:1001880083160313981CC928CA28C4280800F1003C
:10019800831203131A08F0007108840070088000A5
:1001A8000800831603138811081188100810080026
:1001B800831203130810881008118811080054349A
:04400E00E22FFF3E60
:00000001FF
