:060000000A128A110E280D
:10000800FE00030EF3000408F4000A08F5000A12C3
:100018008A111F280A128A1111280A128A11FA2035
:100028000A128A11FA00F601F701F801F9018301B1
:100038000A128A118328831203138C1E2428252868
:100048003B28003018190130F900981C2C282D285D
:100058002F28181218167A300A128A11E2200A126A
:100068008A117A300A128A11D4200A128A11413070
:100078007A06031D402841284A28013083120313B9
:100088008806643081008316031381120B1D4D28E6
:100098004E287A2805307806031D532854285A28F4
:1000A8008316031381160B11F8017A28E8307606B7
:1000B800033003197706031D622863286D2804306E
:1000C800831203138806F601F7010130F200720863
:1000D800F8070230831203138806643081000B117D
:1000E8000130F6070318F70A0030F70775088A0089
:1000F80074088400730E8300FE0E7E0E09008316BA
:1001080003130F108F150A128A11EC200A128A1194
:100118000A128A11F3200A128A110A128A11B920C6
:100128000A128A11333083120313A200BB30A100D4
:10013800DF30A000A00B9E28A10B9E28A20B9E28B2
:100148006430831203138100831603138112811113
:100158000108F839043881008B160B118312031338
:100168008815B5280A128A110E2883160313181247
:100178008312031398178316031398168312031315
:100188001816831603131815831603178711831679
:1001980003139A01813099008C160B178B170800EE
:1001A800F000700884000008831203139900831676
:1001B8000313981CE028E128DB280800F1008312CB
:1001C80003131A08F0007108840070088000080002
:1001D8008316031388110811881008100800831269
:0E01E800031308108810081188110800543401
:04400E00E22FFF3E60
:00000001FF
