:060000000A128A110E280D
:10000800FE00030EF2000408F3000A08F4000A12C6
:100018008A111D280A128A1111280A128A11B4207D
:100028000A128A11FA00F801F90183010A128A11E9
:100038004C28831203138C1E2228232839280030C9
:1000480018190130F900981C2A282B282D28181275
:1000580018167A300A128A119C200A128A117A30EC
:100068000A128A118E200A128A1141307A06031D5B
:100078003E283F284328013083120313880674085A
:100088008A0073088400720E8300FE0E7E0E09003B
:10009800831603130F108F150A128A11A6200A124D
:1000A8008A110A128A11AD200A128A110A128A11BB
:1000B80073200A128A113330F700BB30F600DF30A4
:1000C800F500F50B6528F60B6528F70B65286C28F5
:1000D8008312031388156F280A128A110E288316B3
:1000E8000313181283120313981783160313981611
:1000F8008312031318168316031318158316031790
:100108008711831603139A01813099008C160B17F7
:100118008B170800F000700884000008831203138E
:10012800990083160313981C9A289B289528080081
:10013800F100831203131A08F00071088400700894
:10014800800008008316031388110811881008100E
:10015800080083120313081088100811881108007A
:0201680054340D
:04400E00E22FFF3E60
:00000001FF
